{
	"tests/remix_tests_test.sol": {
		"testSuite": {
			"abi": [
				{
					"inputs": [],
					"name": "beforeAll",
					"outputs": [],
					"stateMutability": "nonpayable",
					"type": "function"
				},
				{
					"inputs": [],
					"name": "checkFailure",
					"outputs": [],
					"stateMutability": "nonpayable",
					"type": "function"
				},
				{
					"inputs": [],
					"name": "checkSenderAndValue",
					"outputs": [],
					"stateMutability": "payable",
					"type": "function"
				},
				{
					"inputs": [],
					"name": "checkSuccess",
					"outputs": [],
					"stateMutability": "nonpayable",
					"type": "function"
				},
				{
					"inputs": [],
					"name": "checkSuccess2",
					"outputs": [
						{
							"internalType": "bool",
							"name": "",
							"type": "bool"
						}
					],
					"stateMutability": "pure",
					"type": "function"
				}
			],
			"devdoc": {
				"kind": "dev",
				"methods": {},
				"version": 1
			},
			"evm": {
				"assembly": "    /* \"tests/remix_tests_test.sol\":618:1939  contract testSuite {... */\n  mstore(0x40, 0x80)\n  callvalue\n  dup1\n  iszero\n  tag_1\n  jumpi\n  0x00\n  dup1\n  revert\ntag_1:\n  pop\n  dataSize(sub_0)\n  dup1\n  dataOffset(sub_0)\n  0x00\n  codecopy\n  0x00\n  return\nstop\n\nsub_0: assembly {\n        /* \"tests/remix_tests_test.sol\":618:1939  contract testSuite {... */\n      mstore(0x40, 0x80)\n      jumpi(tag_1, lt(calldatasize, 0x04))\n      shr(0xe0, calldataload(0x00))\n      dup1\n      0x36c00656\n      gt\n      tag_7\n      jumpi\n      dup1\n      0x36c00656\n      eq\n      tag_4\n      jumpi\n      dup1\n      0x7fea0d4b\n      eq\n      tag_5\n      jumpi\n      dup1\n      0x9074416d\n      eq\n      tag_6\n      jumpi\n      0x00\n      dup1\n      revert\n    tag_7:\n      dup1\n      0x011e6492\n      eq\n      tag_2\n      jumpi\n      dup1\n      0x12d487ea\n      eq\n      tag_3\n      jumpi\n    tag_1:\n      0x00\n      dup1\n      revert\n        /* \"tests/remix_tests_test.sol\":921:1256  function checkSuccess() public {... */\n    tag_2:\n      callvalue\n      dup1\n      iszero\n      tag_8\n      jumpi\n      0x00\n      dup1\n      revert\n    tag_8:\n      pop\n      tag_9\n      tag_10\n      jump\t// in\n    tag_9:\n      stop\n        /* \"tests/remix_tests_test.sol\":1262:1411  function checkSuccess2() public pure returns (bool) {... */\n    tag_3:\n      callvalue\n      dup1\n      iszero\n      tag_11\n      jumpi\n      0x00\n      dup1\n      revert\n    tag_11:\n      pop\n      0x40\n      dup1\n      mload\n        /* \"tests/remix_tests_test.sol\":1400:1404  true */\n      0x01\n        /* \"#utility.yul\":154:195   */\n      dup2\n      mstore\n        /* \"tests/remix_tests_test.sol\":1262:1411  function checkSuccess2() public pure returns (bool) {... */\n      swap1\n      mload\n      swap1\n      dup2\n      swap1\n      sub\n        /* \"#utility.yul\":142:144   */\n      0x20\n        /* \"tests/remix_tests_test.sol\":1262:1411  function checkSuccess2() public pure returns (bool) {... */\n      add\n      swap1\n      return\n        /* \"tests/remix_tests_test.sol\":1421:1532  function checkFailure() public {... */\n    tag_4:\n      callvalue\n      dup1\n      iszero\n      tag_16\n      jumpi\n      0x00\n      dup1\n      revert\n    tag_16:\n      pop\n      tag_9\n      tag_18\n      jump\t// in\n        /* \"tests/remix_tests_test.sol\":780:915  function beforeAll() public {... */\n    tag_5:\n      callvalue\n      dup1\n      iszero\n      tag_19\n      jumpi\n      0x00\n      dup1\n      revert\n    tag_19:\n      pop\n      tag_9\n      tag_21\n      jump\t// in\n        /* \"tests/remix_tests_test.sol\":1695:1937  function checkSenderAndValue() public payable {... */\n    tag_6:\n      tag_9\n      tag_23\n      jump\t// in\n        /* \"tests/remix_tests_test.sol\":921:1256  function checkSuccess() public {... */\n    tag_10:\n        /* \"tests/remix_tests_test.sol\":1058:1093  Assert.ok(2 == 2, 'should be true') */\n      0x40\n      dup1\n      mload\n      0x39df137f00000000000000000000000000000000000000000000000000000000\n      dup2\n      mstore\n        /* \"tests/remix_tests_test.sol\":1068:1074  2 == 2 */\n      0x01\n        /* \"tests/remix_tests_test.sol\":1058:1093  Assert.ok(2 == 2, 'should be true') */\n      0x04\n      dup3\n      add\n        /* \"#utility.yul\":420:461   */\n      mstore\n        /* \"#utility.yul\":477:495   */\n      0x24\n      dup2\n      add\n        /* \"#utility.yul\":470:500   */\n      swap2\n      swap1\n      swap2\n      mstore\n        /* \"#utility.yul\":536:538   */\n      0x0e\n        /* \"#utility.yul\":516:534   */\n      0x44\n      dup3\n      add\n        /* \"#utility.yul\":509:539   */\n      mstore\n        /* \"#utility.yul\":575:591   */\n      0x73686f756c642062652074727565000000000000000000000000000000000000\n        /* \"#utility.yul\":555:573   */\n      0x64\n      dup3\n      add\n        /* \"#utility.yul\":548:592   */\n      mstore\n        /* \"tests/remix_tests_test.sol\":1058:1064  Assert */\n      linkerSymbol(\"68c888a0fd8605830d2b003b50fa307751cf37bb3e56fa7b002730f820c6b1ef\")\n      swap1\n        /* \"tests/remix_tests_test.sol\":1058:1067  Assert.ok */\n      0x39df137f\n      swap1\n        /* \"#utility.yul\":609:628   */\n      0x84\n      add\n        /* \"tests/remix_tests_test.sol\":1058:1093  Assert.ok(2 == 2, 'should be true') */\n      0x20\n      mload(0x40)\n      dup1\n      dup4\n      sub\n      dup2\n      dup7\n      gas\n      delegatecall\n      iszero\n      dup1\n      iszero\n      tag_28\n      jumpi\n      returndatasize\n      0x00\n      dup1\n      returndatacopy\n      revert(0x00, returndatasize)\n    tag_28:\n      pop\n      pop\n      pop\n      pop\n      mload(0x40)\n      returndatasize\n      not(0x1f)\n      0x1f\n      dup3\n      add\n      and\n      dup3\n      add\n      dup1\n      0x40\n      mstore\n      pop\n      dup2\n      add\n      swap1\n      tag_29\n      swap2\n      swap1\n      tag_30\n      jump\t// in\n    tag_29:\n      pop\n        /* \"tests/remix_tests_test.sol\":1103:1172  Assert.greaterThan(uint(2), uint(1), \"2 should be greater than to 1\") */\n      mload(0x40)\n      0xa079f1a300000000000000000000000000000000000000000000000000000000\n      dup2\n      mstore\n        /* \"tests/remix_tests_test.sol\":1127:1128  2 */\n      0x02\n        /* \"tests/remix_tests_test.sol\":1103:1172  Assert.greaterThan(uint(2), uint(1), \"2 should be greater than to 1\") */\n      0x04\n      dup3\n      add\n        /* \"#utility.yul\":1169:1194   */\n      mstore\n        /* \"tests/remix_tests_test.sol\":1136:1137  1 */\n      0x01\n        /* \"#utility.yul\":1210:1228   */\n      0x24\n      dup3\n      add\n        /* \"#utility.yul\":1203:1237   */\n      mstore\n        /* \"#utility.yul\":1273:1275   */\n      0x60\n        /* \"#utility.yul\":1253:1271   */\n      0x44\n      dup3\n      add\n        /* \"#utility.yul\":1246:1276   */\n      mstore\n        /* \"#utility.yul\":1312:1314   */\n      0x1d\n        /* \"#utility.yul\":1292:1310   */\n      0x64\n      dup3\n      add\n        /* \"#utility.yul\":1285:1315   */\n      mstore\n        /* \"#utility.yul\":1352:1383   */\n      0x322073686f756c642062652067726561746572207468616e20746f2031000000\n        /* \"#utility.yul\":1331:1350   */\n      0x84\n      dup3\n      add\n        /* \"#utility.yul\":1324:1384   */\n      mstore\n        /* \"tests/remix_tests_test.sol\":1103:1109  Assert */\n      linkerSymbol(\"68c888a0fd8605830d2b003b50fa307751cf37bb3e56fa7b002730f820c6b1ef\")\n      swap1\n        /* \"tests/remix_tests_test.sol\":1103:1121  Assert.greaterThan */\n      0xa079f1a3\n      swap1\n        /* \"#utility.yul\":1401:1420   */\n      0xa4\n      add\n        /* \"tests/remix_tests_test.sol\":1103:1172  Assert.greaterThan(uint(2), uint(1), \"2 should be greater than to 1\") */\n      0x20\n      mload(0x40)\n      dup1\n      dup4\n      sub\n      dup2\n      dup7\n      gas\n      delegatecall\n      iszero\n      dup1\n      iszero\n      tag_34\n      jumpi\n      returndatasize\n      0x00\n      dup1\n      returndatacopy\n      revert(0x00, returndatasize)\n    tag_34:\n      pop\n      pop\n      pop\n      pop\n      mload(0x40)\n      returndatasize\n      not(0x1f)\n      0x1f\n      dup3\n      add\n      and\n      dup3\n      add\n      dup1\n      0x40\n      mstore\n      pop\n      dup2\n      add\n      swap1\n      tag_35\n      swap2\n      swap1\n      tag_30\n      jump\t// in\n    tag_35:\n      pop\n        /* \"tests/remix_tests_test.sol\":1182:1249  Assert.lesserThan(uint(2), uint(3), \"2 should be lesser than to 3\") */\n      mload(0x40)\n      0xaea8895200000000000000000000000000000000000000000000000000000000\n      dup2\n      mstore\n        /* \"tests/remix_tests_test.sol\":1205:1206  2 */\n      0x02\n        /* \"tests/remix_tests_test.sol\":1182:1249  Assert.lesserThan(uint(2), uint(3), \"2 should be lesser than to 3\") */\n      0x04\n      dup3\n      add\n        /* \"#utility.yul\":1679:1704   */\n      mstore\n        /* \"tests/remix_tests_test.sol\":1214:1215  3 */\n      0x03\n        /* \"#utility.yul\":1720:1738   */\n      0x24\n      dup3\n      add\n        /* \"#utility.yul\":1713:1747   */\n      mstore\n        /* \"#utility.yul\":1783:1785   */\n      0x60\n        /* \"#utility.yul\":1763:1781   */\n      0x44\n      dup3\n      add\n        /* \"#utility.yul\":1756:1786   */\n      mstore\n        /* \"#utility.yul\":1822:1824   */\n      0x1c\n        /* \"#utility.yul\":1802:1820   */\n      0x64\n      dup3\n      add\n        /* \"#utility.yul\":1795:1825   */\n      mstore\n        /* \"#utility.yul\":1862:1892   */\n      0x322073686f756c64206265206c6573736572207468616e20746f203300000000\n        /* \"#utility.yul\":1841:1860   */\n      0x84\n      dup3\n      add\n        /* \"#utility.yul\":1834:1893   */\n      mstore\n        /* \"tests/remix_tests_test.sol\":1182:1188  Assert */\n      linkerSymbol(\"68c888a0fd8605830d2b003b50fa307751cf37bb3e56fa7b002730f820c6b1ef\")\n      swap1\n        /* \"tests/remix_tests_test.sol\":1182:1199  Assert.lesserThan */\n      0xaea88952\n      swap1\n        /* \"#utility.yul\":1910:1929   */\n      0xa4\n      add\n        /* \"tests/remix_tests_test.sol\":1182:1249  Assert.lesserThan(uint(2), uint(3), \"2 should be lesser than to 3\") */\n    tag_36:\n      0x20\n      mload(0x40)\n      dup1\n      dup4\n      sub\n      dup2\n      dup7\n      gas\n      delegatecall\n      iszero\n      dup1\n      iszero\n      tag_39\n      jumpi\n      returndatasize\n      0x00\n      dup1\n      returndatacopy\n      revert(0x00, returndatasize)\n    tag_39:\n      pop\n      pop\n      pop\n      pop\n      mload(0x40)\n      returndatasize\n      not(0x1f)\n      0x1f\n      dup3\n      add\n      and\n      dup3\n      add\n      dup1\n      0x40\n      mstore\n      pop\n      dup2\n      add\n      swap1\n      tag_40\n      swap2\n      swap1\n      tag_30\n      jump\t// in\n    tag_40:\n      pop\n        /* \"tests/remix_tests_test.sol\":921:1256  function checkSuccess() public {... */\n      jump\t// out\n        /* \"tests/remix_tests_test.sol\":1421:1532  function checkFailure() public {... */\n    tag_18:\n        /* \"tests/remix_tests_test.sol\":1462:1525  Assert.notEqual(uint(1), uint(1), \"1 should not be equal to 1\") */\n      mload(0x40)\n      0x561015e200000000000000000000000000000000000000000000000000000000\n      dup2\n      mstore\n        /* \"tests/remix_tests_test.sol\":1483:1484  1 */\n      0x01\n        /* \"tests/remix_tests_test.sol\":1462:1525  Assert.notEqual(uint(1), uint(1), \"1 should not be equal to 1\") */\n      0x04\n      dup3\n      add\n        /* \"#utility.yul\":2188:2213   */\n      dup2\n      swap1\n      mstore\n        /* \"#utility.yul\":2229:2247   */\n      0x24\n      dup3\n      add\n        /* \"#utility.yul\":2222:2256   */\n      mstore\n        /* \"#utility.yul\":2292:2294   */\n      0x60\n        /* \"#utility.yul\":2272:2290   */\n      0x44\n      dup3\n      add\n        /* \"#utility.yul\":2265:2295   */\n      mstore\n        /* \"#utility.yul\":2331:2333   */\n      0x1a\n        /* \"#utility.yul\":2311:2329   */\n      0x64\n      dup3\n      add\n        /* \"#utility.yul\":2304:2334   */\n      mstore\n        /* \"#utility.yul\":2371:2399   */\n      0x312073686f756c64206e6f7420626520657175616c20746f2031000000000000\n        /* \"#utility.yul\":2350:2369   */\n      0x84\n      dup3\n      add\n        /* \"#utility.yul\":2343:2400   */\n      mstore\n        /* \"tests/remix_tests_test.sol\":1462:1468  Assert */\n      linkerSymbol(\"68c888a0fd8605830d2b003b50fa307751cf37bb3e56fa7b002730f820c6b1ef\")\n      swap1\n        /* \"tests/remix_tests_test.sol\":1462:1477  Assert.notEqual */\n      0x561015e2\n      swap1\n        /* \"#utility.yul\":2417:2436   */\n      0xa4\n      add\n        /* \"tests/remix_tests_test.sol\":1462:1525  Assert.notEqual(uint(1), uint(1), \"1 should not be equal to 1\") */\n      tag_36\n        /* \"#utility.yul\":1940:2442   */\n      jump\n        /* \"tests/remix_tests_test.sol\":780:915  function beforeAll() public {... */\n    tag_21:\n        /* \"tests/remix_tests_test.sol\":852:908  Assert.equal(uint(1), uint(1), \"1 should be equal to 1\") */\n      mload(0x40)\n      0xabcd796000000000000000000000000000000000000000000000000000000000\n      dup2\n      mstore\n        /* \"tests/remix_tests_test.sol\":870:871  1 */\n      0x01\n        /* \"tests/remix_tests_test.sol\":852:908  Assert.equal(uint(1), uint(1), \"1 should be equal to 1\") */\n      0x04\n      dup3\n      add\n        /* \"#utility.yul\":2695:2720   */\n      dup2\n      swap1\n      mstore\n        /* \"#utility.yul\":2736:2754   */\n      0x24\n      dup3\n      add\n        /* \"#utility.yul\":2729:2763   */\n      mstore\n        /* \"#utility.yul\":2799:2801   */\n      0x60\n        /* \"#utility.yul\":2779:2797   */\n      0x44\n      dup3\n      add\n        /* \"#utility.yul\":2772:2802   */\n      mstore\n        /* \"#utility.yul\":2838:2840   */\n      0x16\n        /* \"#utility.yul\":2818:2836   */\n      0x64\n      dup3\n      add\n        /* \"#utility.yul\":2811:2841   */\n      mstore\n        /* \"#utility.yul\":2878:2902   */\n      0x312073686f756c6420626520657175616c20746f203100000000000000000000\n        /* \"#utility.yul\":2857:2876   */\n      0x84\n      dup3\n      add\n        /* \"#utility.yul\":2850:2903   */\n      mstore\n        /* \"tests/remix_tests_test.sol\":852:858  Assert */\n      linkerSymbol(\"68c888a0fd8605830d2b003b50fa307751cf37bb3e56fa7b002730f820c6b1ef\")\n      swap1\n        /* \"tests/remix_tests_test.sol\":852:864  Assert.equal */\n      0xabcd7960\n      swap1\n        /* \"#utility.yul\":2920:2939   */\n      0xa4\n      add\n        /* \"tests/remix_tests_test.sol\":852:908  Assert.equal(uint(1), uint(1), \"1 should be equal to 1\") */\n      tag_36\n        /* \"#utility.yul\":2447:2945   */\n      jump\n        /* \"tests/remix_tests_test.sol\":1695:1937  function checkSenderAndValue() public payable {... */\n    tag_23:\n        /* \"tests/remix_tests_test.sol\":1829:1856  TestsAccounts.getAccount(1) */\n      mload(0x40)\n      0xce88b14500000000000000000000000000000000000000000000000000000000\n      dup2\n      mstore\n        /* \"tests/remix_tests_test.sol\":1854:1855  1 */\n      0x01\n        /* \"tests/remix_tests_test.sol\":1829:1856  TestsAccounts.getAccount(1) */\n      0x04\n      dup3\n      add\n        /* \"#utility.yul\":3112:3137   */\n      mstore\n        /* \"tests/remix_tests_test.sol\":1804:1810  Assert */\n      linkerSymbol(\"68c888a0fd8605830d2b003b50fa307751cf37bb3e56fa7b002730f820c6b1ef\")\n      swap1\n        /* \"tests/remix_tests_test.sol\":1804:1816  Assert.equal */\n      0xbfba5dd6\n      swap1\n        /* \"tests/remix_tests_test.sol\":1817:1827  msg.sender */\n      caller\n      swap1\n        /* \"tests/remix_tests_test.sol\":1829:1842  TestsAccounts */\n      linkerSymbol(\"1068a87eb54ed04c4e435de35b2ebf536f41f3ff436b4a9bd78b8044f97a1889\")\n      swap1\n        /* \"tests/remix_tests_test.sol\":1829:1853  TestsAccounts.getAccount */\n      0xce88b145\n      swap1\n        /* \"#utility.yul\":3085:3103   */\n      0x24\n      add\n        /* \"tests/remix_tests_test.sol\":1829:1856  TestsAccounts.getAccount(1) */\n      0x20\n      mload(0x40)\n      dup1\n      dup4\n      sub\n      dup2\n      dup7\n      gas\n      delegatecall\n      iszero\n      dup1\n      iszero\n      tag_58\n      jumpi\n      returndatasize\n      0x00\n      dup1\n      returndatacopy\n      revert(0x00, returndatasize)\n    tag_58:\n      pop\n      pop\n      pop\n      pop\n      mload(0x40)\n      returndatasize\n      not(0x1f)\n      0x1f\n      dup3\n      add\n      and\n      dup3\n      add\n      dup1\n      0x40\n      mstore\n      pop\n      dup2\n      add\n      swap1\n      tag_59\n      swap2\n      swap1\n      tag_60\n      jump\t// in\n    tag_59:\n        /* \"tests/remix_tests_test.sol\":1804:1875  Assert.equal(msg.sender, TestsAccounts.getAccount(1), \"Invalid sender\") */\n      mload(0x40)\n      0xffffffff00000000000000000000000000000000000000000000000000000000\n      0xe0\n      dup6\n      swap1\n      shl\n      and\n      dup2\n      mstore\n        /* \"#utility.yul\":3724:3766   */\n      0xffffffffffffffffffffffffffffffffffffffff\n        /* \"#utility.yul\":3793:3808   */\n      swap3\n      dup4\n      and\n        /* \"tests/remix_tests_test.sol\":1804:1875  Assert.equal(msg.sender, TestsAccounts.getAccount(1), \"Invalid sender\") */\n      0x04\n      dup3\n      add\n        /* \"#utility.yul\":3775:3809   */\n      mstore\n        /* \"#utility.yul\":3845:3860   */\n      swap2\n      and\n        /* \"#utility.yul\":3825:3843   */\n      0x24\n      dup3\n      add\n        /* \"#utility.yul\":3818:3861   */\n      mstore\n        /* \"#utility.yul\":3897:3899   */\n      0x60\n        /* \"#utility.yul\":3877:3895   */\n      0x44\n      dup3\n      add\n        /* \"#utility.yul\":3870:3900   */\n      mstore\n        /* \"#utility.yul\":3936:3938   */\n      0x0e\n        /* \"#utility.yul\":3916:3934   */\n      0x64\n      dup3\n      add\n        /* \"#utility.yul\":3909:3939   */\n      mstore\n        /* \"#utility.yul\":3976:3992   */\n      0x496e76616c69642073656e646572000000000000000000000000000000000000\n        /* \"#utility.yul\":3955:3974   */\n      0x84\n      dup3\n      add\n        /* \"#utility.yul\":3948:3993   */\n      mstore\n        /* \"#utility.yul\":4010:4029   */\n      0xa4\n      add\n        /* \"tests/remix_tests_test.sol\":1804:1875  Assert.equal(msg.sender, TestsAccounts.getAccount(1), \"Invalid sender\") */\n      0x20\n      mload(0x40)\n      dup1\n      dup4\n      sub\n      dup2\n      dup7\n      gas\n      delegatecall\n      iszero\n      dup1\n      iszero\n      tag_64\n      jumpi\n      returndatasize\n      0x00\n      dup1\n      returndatacopy\n      revert(0x00, returndatasize)\n    tag_64:\n      pop\n      pop\n      pop\n      pop\n      mload(0x40)\n      returndatasize\n      not(0x1f)\n      0x1f\n      dup3\n      add\n      and\n      dup3\n      add\n      dup1\n      0x40\n      mstore\n      pop\n      dup2\n      add\n      swap1\n      tag_65\n      swap2\n      swap1\n      tag_30\n      jump\t// in\n    tag_65:\n      pop\n        /* \"tests/remix_tests_test.sol\":1885:1930  Assert.equal(msg.value, 100, \"Invalid value\") */\n      mload(0x40)\n      0xabcd796000000000000000000000000000000000000000000000000000000000\n      dup2\n      mstore\n        /* \"tests/remix_tests_test.sol\":1898:1907  msg.value */\n      callvalue\n        /* \"tests/remix_tests_test.sol\":1885:1930  Assert.equal(msg.value, 100, \"Invalid value\") */\n      0x04\n      dup3\n      add\n        /* \"#utility.yul\":4298:4323   */\n      mstore\n        /* \"tests/remix_tests_test.sol\":1909:1912  100 */\n      0x64\n        /* \"#utility.yul\":4339:4357   */\n      0x24\n      dup3\n      add\n        /* \"#utility.yul\":4332:4366   */\n      dup2\n      swap1\n      mstore\n        /* \"#utility.yul\":4402:4404   */\n      0x60\n        /* \"#utility.yul\":4382:4400   */\n      0x44\n      dup4\n      add\n        /* \"#utility.yul\":4375:4405   */\n      mstore\n        /* \"#utility.yul\":4441:4443   */\n      0x0d\n        /* \"#utility.yul\":4421:4439   */\n      swap1\n      dup3\n      add\n        /* \"#utility.yul\":4414:4444   */\n      mstore\n        /* \"#utility.yul\":4481:4496   */\n      0x496e76616c69642076616c756500000000000000000000000000000000000000\n        /* \"#utility.yul\":4460:4479   */\n      0x84\n      dup3\n      add\n        /* \"#utility.yul\":4453:4497   */\n      mstore\n        /* \"tests/remix_tests_test.sol\":1885:1891  Assert */\n      linkerSymbol(\"68c888a0fd8605830d2b003b50fa307751cf37bb3e56fa7b002730f820c6b1ef\")\n      swap1\n        /* \"tests/remix_tests_test.sol\":1885:1897  Assert.equal */\n      0xabcd7960\n      swap1\n        /* \"#utility.yul\":4514:4533   */\n      0xa4\n      add\n        /* \"tests/remix_tests_test.sol\":1885:1930  Assert.equal(msg.value, 100, \"Invalid value\") */\n      tag_36\n        /* \"#utility.yul\":4040:4539   */\n      jump\n        /* \"#utility.yul\":639:916   */\n    tag_30:\n        /* \"#utility.yul\":706:712   */\n      0x00\n        /* \"#utility.yul\":759:761   */\n      0x20\n        /* \"#utility.yul\":747:756   */\n      dup3\n        /* \"#utility.yul\":738:745   */\n      dup5\n        /* \"#utility.yul\":734:757   */\n      sub\n        /* \"#utility.yul\":730:762   */\n      slt\n        /* \"#utility.yul\":727:779   */\n      iszero\n      tag_75\n      jumpi\n        /* \"#utility.yul\":775:776   */\n      0x00\n        /* \"#utility.yul\":772:773   */\n      dup1\n        /* \"#utility.yul\":765:777   */\n      revert\n        /* \"#utility.yul\":727:779   */\n    tag_75:\n        /* \"#utility.yul\":807:816   */\n      dup2\n        /* \"#utility.yul\":801:817   */\n      mload\n        /* \"#utility.yul\":860:865   */\n      dup1\n        /* \"#utility.yul\":853:866   */\n      iszero\n        /* \"#utility.yul\":846:867   */\n      iszero\n        /* \"#utility.yul\":839:844   */\n      dup2\n        /* \"#utility.yul\":836:868   */\n      eq\n        /* \"#utility.yul\":826:886   */\n      tag_76\n      jumpi\n        /* \"#utility.yul\":882:883   */\n      0x00\n        /* \"#utility.yul\":879:880   */\n      dup1\n        /* \"#utility.yul\":872:884   */\n      revert\n        /* \"#utility.yul\":826:886   */\n    tag_76:\n        /* \"#utility.yul\":905:910   */\n      swap4\n        /* \"#utility.yul\":639:916   */\n      swap3\n      pop\n      pop\n      pop\n      jump\t// out\n        /* \"#utility.yul\":3148:3461   */\n    tag_60:\n        /* \"#utility.yul\":3218:3224   */\n      0x00\n        /* \"#utility.yul\":3271:3273   */\n      0x20\n        /* \"#utility.yul\":3259:3268   */\n      dup3\n        /* \"#utility.yul\":3250:3257   */\n      dup5\n        /* \"#utility.yul\":3246:3269   */\n      sub\n        /* \"#utility.yul\":3242:3274   */\n      slt\n        /* \"#utility.yul\":3239:3291   */\n      iszero\n      tag_83\n      jumpi\n        /* \"#utility.yul\":3287:3288   */\n      0x00\n        /* \"#utility.yul\":3284:3285   */\n      dup1\n        /* \"#utility.yul\":3277:3289   */\n      revert\n        /* \"#utility.yul\":3239:3291   */\n    tag_83:\n        /* \"#utility.yul\":3319:3328   */\n      dup2\n        /* \"#utility.yul\":3313:3329   */\n      mload\n        /* \"#utility.yul\":3369:3411   */\n      0xffffffffffffffffffffffffffffffffffffffff\n        /* \"#utility.yul\":3362:3367   */\n      dup2\n        /* \"#utility.yul\":3358:3412   */\n      and\n        /* \"#utility.yul\":3351:3356   */\n      dup2\n        /* \"#utility.yul\":3348:3413   */\n      eq\n        /* \"#utility.yul\":3338:3431   */\n      tag_76\n      jumpi\n        /* \"#utility.yul\":3427:3428   */\n      0x00\n        /* \"#utility.yul\":3424:3425   */\n      dup1\n        /* \"#utility.yul\":3417:3429   */\n      revert\n\n    auxdata: 0xa2646970667358221220a575b43c4e321ca38795d660fd03678f4964f12a86e37b0e92b4e2ebe3e90cfb64736f6c63430008180033\n}\n",
				"bytecode": {
					"linkReferences": {
						".deps/remix-tests/remix_tests.sol": {
							"Assert": [
								{
									"length": 20,
									"start": 324
								},
								{
									"length": 20,
									"start": 523
								},
								{
									"length": 20,
									"start": 722
								},
								{
									"length": 20,
									"start": 924
								},
								{
									"length": 20,
									"start": 1064
								},
								{
									"length": 20,
									"start": 1145
								},
								{
									"length": 20,
									"start": 1572
								}
							]
						},
						"remix_accounts.sol": {
							"TestsAccounts": [
								{
									"length": 20,
									"start": 1175
								}
							]
						}
					},
					"object": "608060405234801561000f575f80fd5b506106b88061001d5f395ff3fe608060405260043610610058575f3560e01c806336c006561161004157806336c00656146100925780637fea0d4b146100a65780639074416d146100ba575f80fd5b8063011e64921461005c57806312d487ea14610072575b5f80fd5b348015610067575f80fd5b506100706100c2565b005b34801561007d575f80fd5b50604080516001815290519081900360200190f35b34801561009d575f80fd5b50610070610315565b3480156100b1575f80fd5b506100706103a1565b61007061042d565b604080517f39df137f000000000000000000000000000000000000000000000000000000008152600160048201526024810191909152600e60448201527f73686f756c642062652074727565000000000000000000000000000000000000606482015273__$68c888a0fd8605830d2b003b50fa307751$__906339df137f90608401602060405180830381865af415801561015f573d5f803e3d5ffd5b505050506040513d601f19601f820116820180604052508101906101839190610629565b506040517fa079f1a3000000000000000000000000000000000000000000000000000000008152600260048201526001602482015260606044820152601d60648201527f322073686f756c642062652067726561746572207468616e20746f2031000000608482015273__$68c888a0fd8605830d2b003b50fa307751$__9063a079f1a39060a401602060405180830381865af4158015610226573d5f803e3d5ffd5b505050506040513d601f19601f8201168201806040525081019061024a9190610629565b506040517faea88952000000000000000000000000000000000000000000000000000000008152600260048201526003602482015260606044820152601c60648201527f322073686f756c64206265206c6573736572207468616e20746f203300000000608482015273__$68c888a0fd8605830d2b003b50fa307751$__9063aea889529060a4015b602060405180830381865af41580156102ee573d5f803e3d5ffd5b505050506040513d601f19601f820116820180604052508101906103129190610629565b50565b6040517f561015e2000000000000000000000000000000000000000000000000000000008152600160048201819052602482015260606044820152601a60648201527f312073686f756c64206e6f7420626520657175616c20746f2031000000000000608482015273__$68c888a0fd8605830d2b003b50fa307751$__9063561015e29060a4016102d3565b6040517fabcd7960000000000000000000000000000000000000000000000000000000008152600160048201819052602482015260606044820152601660648201527f312073686f756c6420626520657175616c20746f203100000000000000000000608482015273__$68c888a0fd8605830d2b003b50fa307751$__9063abcd79609060a4016102d3565b6040517fce88b1450000000000000000000000000000000000000000000000000000000081526001600482015273__$68c888a0fd8605830d2b003b50fa307751$__9063bfba5dd690339073__$1068a87eb54ed04c4e435de35b2ebf536f$__9063ce88b14590602401602060405180830381865af41580156104b2573d5f803e3d5ffd5b505050506040513d601f19601f820116820180604052508101906104d6919061064f565b6040517fffffffff0000000000000000000000000000000000000000000000000000000060e085901b16815273ffffffffffffffffffffffffffffffffffffffff92831660048201529116602482015260606044820152600e60648201527f496e76616c69642073656e646572000000000000000000000000000000000000608482015260a401602060405180830381865af4158015610578573d5f803e3d5ffd5b505050506040513d601f19601f8201168201806040525081019061059c9190610629565b506040517fabcd796000000000000000000000000000000000000000000000000000000000815234600482015260646024820181905260606044830152600d908201527f496e76616c69642076616c756500000000000000000000000000000000000000608482015273__$68c888a0fd8605830d2b003b50fa307751$__9063abcd79609060a4016102d3565b5f60208284031215610639575f80fd5b81518015158114610648575f80fd5b9392505050565b5f6020828403121561065f575f80fd5b815173ffffffffffffffffffffffffffffffffffffffff81168114610648575f80fdfea2646970667358221220a575b43c4e321ca38795d660fd03678f4964f12a86e37b0e92b4e2ebe3e90cfb64736f6c63430008180033",
					"opcodes": "PUSH1 0x80 PUSH1 0x40 MSTORE CALLVALUE DUP1 ISZERO PUSH2 0xF JUMPI PUSH0 DUP1 REVERT JUMPDEST POP PUSH2 0x6B8 DUP1 PUSH2 0x1D PUSH0 CODECOPY PUSH0 RETURN INVALID PUSH1 0x80 PUSH1 0x40 MSTORE PUSH1 0x4 CALLDATASIZE LT PUSH2 0x58 JUMPI PUSH0 CALLDATALOAD PUSH1 0xE0 SHR DUP1 PUSH4 0x36C00656 GT PUSH2 0x41 JUMPI DUP1 PUSH4 0x36C00656 EQ PUSH2 0x92 JUMPI DUP1 PUSH4 0x7FEA0D4B EQ PUSH2 0xA6 JUMPI DUP1 PUSH4 0x9074416D EQ PUSH2 0xBA JUMPI PUSH0 DUP1 REVERT JUMPDEST DUP1 PUSH4 0x11E6492 EQ PUSH2 0x5C JUMPI DUP1 PUSH4 0x12D487EA EQ PUSH2 0x72 JUMPI JUMPDEST PUSH0 DUP1 REVERT JUMPDEST CALLVALUE DUP1 ISZERO PUSH2 0x67 JUMPI PUSH0 DUP1 REVERT JUMPDEST POP PUSH2 0x70 PUSH2 0xC2 JUMP JUMPDEST STOP JUMPDEST CALLVALUE DUP1 ISZERO PUSH2 0x7D JUMPI PUSH0 DUP1 REVERT JUMPDEST POP PUSH1 0x40 DUP1 MLOAD PUSH1 0x1 DUP2 MSTORE SWAP1 MLOAD SWAP1 DUP2 SWAP1 SUB PUSH1 0x20 ADD SWAP1 RETURN JUMPDEST CALLVALUE DUP1 ISZERO PUSH2 0x9D JUMPI PUSH0 DUP1 REVERT JUMPDEST POP PUSH2 0x70 PUSH2 0x315 JUMP JUMPDEST CALLVALUE DUP1 ISZERO PUSH2 0xB1 JUMPI PUSH0 DUP1 REVERT JUMPDEST POP PUSH2 0x70 PUSH2 0x3A1 JUMP JUMPDEST PUSH2 0x70 PUSH2 0x42D JUMP JUMPDEST PUSH1 0x40 DUP1 MLOAD PUSH32 0x39DF137F00000000000000000000000000000000000000000000000000000000 DUP2 MSTORE PUSH1 0x1 PUSH1 0x4 DUP3 ADD MSTORE PUSH1 0x24 DUP2 ADD SWAP2 SWAP1 SWAP2 MSTORE PUSH1 0xE PUSH1 0x44 DUP3 ADD MSTORE PUSH32 0x73686F756C642062652074727565000000000000000000000000000000000000 PUSH1 0x64 DUP3 ADD MSTORE PUSH20 0x0 SWAP1 PUSH4 0x39DF137F SWAP1 PUSH1 0x84 ADD PUSH1 0x20 PUSH1 0x40 MLOAD DUP1 DUP4 SUB DUP2 DUP7 GAS DELEGATECALL ISZERO DUP1 ISZERO PUSH2 0x15F JUMPI RETURNDATASIZE PUSH0 DUP1 RETURNDATACOPY RETURNDATASIZE PUSH0 REVERT JUMPDEST POP POP POP POP PUSH1 0x40 MLOAD RETURNDATASIZE PUSH1 0x1F NOT PUSH1 0x1F DUP3 ADD AND DUP3 ADD DUP1 PUSH1 0x40 MSTORE POP DUP2 ADD SWAP1 PUSH2 0x183 SWAP2 SWAP1 PUSH2 0x629 JUMP JUMPDEST POP PUSH1 0x40 MLOAD PUSH32 0xA079F1A300000000000000000000000000000000000000000000000000000000 DUP2 MSTORE PUSH1 0x2 PUSH1 0x4 DUP3 ADD MSTORE PUSH1 0x1 PUSH1 0x24 DUP3 ADD MSTORE PUSH1 0x60 PUSH1 0x44 DUP3 ADD MSTORE PUSH1 0x1D PUSH1 0x64 DUP3 ADD MSTORE PUSH32 0x322073686F756C642062652067726561746572207468616E20746F2031000000 PUSH1 0x84 DUP3 ADD MSTORE PUSH20 0x0 SWAP1 PUSH4 0xA079F1A3 SWAP1 PUSH1 0xA4 ADD PUSH1 0x20 PUSH1 0x40 MLOAD DUP1 DUP4 SUB DUP2 DUP7 GAS DELEGATECALL ISZERO DUP1 ISZERO PUSH2 0x226 JUMPI RETURNDATASIZE PUSH0 DUP1 RETURNDATACOPY RETURNDATASIZE PUSH0 REVERT JUMPDEST POP POP POP POP PUSH1 0x40 MLOAD RETURNDATASIZE PUSH1 0x1F NOT PUSH1 0x1F DUP3 ADD AND DUP3 ADD DUP1 PUSH1 0x40 MSTORE POP DUP2 ADD SWAP1 PUSH2 0x24A SWAP2 SWAP1 PUSH2 0x629 JUMP JUMPDEST POP PUSH1 0x40 MLOAD PUSH32 0xAEA8895200000000000000000000000000000000000000000000000000000000 DUP2 MSTORE PUSH1 0x2 PUSH1 0x4 DUP3 ADD MSTORE PUSH1 0x3 PUSH1 0x24 DUP3 ADD MSTORE PUSH1 0x60 PUSH1 0x44 DUP3 ADD MSTORE PUSH1 0x1C PUSH1 0x64 DUP3 ADD MSTORE PUSH32 0x322073686F756C64206265206C6573736572207468616E20746F203300000000 PUSH1 0x84 DUP3 ADD MSTORE PUSH20 0x0 SWAP1 PUSH4 0xAEA88952 SWAP1 PUSH1 0xA4 ADD JUMPDEST PUSH1 0x20 PUSH1 0x40 MLOAD DUP1 DUP4 SUB DUP2 DUP7 GAS DELEGATECALL ISZERO DUP1 ISZERO PUSH2 0x2EE JUMPI RETURNDATASIZE PUSH0 DUP1 RETURNDATACOPY RETURNDATASIZE PUSH0 REVERT JUMPDEST POP POP POP POP PUSH1 0x40 MLOAD RETURNDATASIZE PUSH1 0x1F NOT PUSH1 0x1F DUP3 ADD AND DUP3 ADD DUP1 PUSH1 0x40 MSTORE POP DUP2 ADD SWAP1 PUSH2 0x312 SWAP2 SWAP1 PUSH2 0x629 JUMP JUMPDEST POP JUMP JUMPDEST PUSH1 0x40 MLOAD PUSH32 0x561015E200000000000000000000000000000000000000000000000000000000 DUP2 MSTORE PUSH1 0x1 PUSH1 0x4 DUP3 ADD DUP2 SWAP1 MSTORE PUSH1 0x24 DUP3 ADD MSTORE PUSH1 0x60 PUSH1 0x44 DUP3 ADD MSTORE PUSH1 0x1A PUSH1 0x64 DUP3 ADD MSTORE PUSH32 0x312073686F756C64206E6F7420626520657175616C20746F2031000000000000 PUSH1 0x84 DUP3 ADD MSTORE PUSH20 0x0 SWAP1 PUSH4 0x561015E2 SWAP1 PUSH1 0xA4 ADD PUSH2 0x2D3 JUMP JUMPDEST PUSH1 0x40 MLOAD PUSH32 0xABCD796000000000000000000000000000000000000000000000000000000000 DUP2 MSTORE PUSH1 0x1 PUSH1 0x4 DUP3 ADD DUP2 SWAP1 MSTORE PUSH1 0x24 DUP3 ADD MSTORE PUSH1 0x60 PUSH1 0x44 DUP3 ADD MSTORE PUSH1 0x16 PUSH1 0x64 DUP3 ADD MSTORE PUSH32 0x312073686F756C6420626520657175616C20746F203100000000000000000000 PUSH1 0x84 DUP3 ADD MSTORE PUSH20 0x0 SWAP1 PUSH4 0xABCD7960 SWAP1 PUSH1 0xA4 ADD PUSH2 0x2D3 JUMP JUMPDEST PUSH1 0x40 MLOAD PUSH32 0xCE88B14500000000000000000000000000000000000000000000000000000000 DUP2 MSTORE PUSH1 0x1 PUSH1 0x4 DUP3 ADD MSTORE PUSH20 0x0 SWAP1 PUSH4 0xBFBA5DD6 SWAP1 CALLER SWAP1 PUSH20 0x0 SWAP1 PUSH4 0xCE88B145 SWAP1 PUSH1 0x24 ADD PUSH1 0x20 PUSH1 0x40 MLOAD DUP1 DUP4 SUB DUP2 DUP7 GAS DELEGATECALL ISZERO DUP1 ISZERO PUSH2 0x4B2 JUMPI RETURNDATASIZE PUSH0 DUP1 RETURNDATACOPY RETURNDATASIZE PUSH0 REVERT JUMPDEST POP POP POP POP PUSH1 0x40 MLOAD RETURNDATASIZE PUSH1 0x1F NOT PUSH1 0x1F DUP3 ADD AND DUP3 ADD DUP1 PUSH1 0x40 MSTORE POP DUP2 ADD SWAP1 PUSH2 0x4D6 SWAP2 SWAP1 PUSH2 0x64F JUMP JUMPDEST PUSH1 0x40 MLOAD PUSH32 0xFFFFFFFF00000000000000000000000000000000000000000000000000000000 PUSH1 0xE0 DUP6 SWAP1 SHL AND DUP2 MSTORE PUSH20 0xFFFFFFFFFFFFFFFFFFFFFFFFFFFFFFFFFFFFFFFF SWAP3 DUP4 AND PUSH1 0x4 DUP3 ADD MSTORE SWAP2 AND PUSH1 0x24 DUP3 ADD MSTORE PUSH1 0x60 PUSH1 0x44 DUP3 ADD MSTORE PUSH1 0xE PUSH1 0x64 DUP3 ADD MSTORE PUSH32 0x496E76616C69642073656E646572000000000000000000000000000000000000 PUSH1 0x84 DUP3 ADD MSTORE PUSH1 0xA4 ADD PUSH1 0x20 PUSH1 0x40 MLOAD DUP1 DUP4 SUB DUP2 DUP7 GAS DELEGATECALL ISZERO DUP1 ISZERO PUSH2 0x578 JUMPI RETURNDATASIZE PUSH0 DUP1 RETURNDATACOPY RETURNDATASIZE PUSH0 REVERT JUMPDEST POP POP POP POP PUSH1 0x40 MLOAD RETURNDATASIZE PUSH1 0x1F NOT PUSH1 0x1F DUP3 ADD AND DUP3 ADD DUP1 PUSH1 0x40 MSTORE POP DUP2 ADD SWAP1 PUSH2 0x59C SWAP2 SWAP1 PUSH2 0x629 JUMP JUMPDEST POP PUSH1 0x40 MLOAD PUSH32 0xABCD796000000000000000000000000000000000000000000000000000000000 DUP2 MSTORE CALLVALUE PUSH1 0x4 DUP3 ADD MSTORE PUSH1 0x64 PUSH1 0x24 DUP3 ADD DUP2 SWAP1 MSTORE PUSH1 0x60 PUSH1 0x44 DUP4 ADD MSTORE PUSH1 0xD SWAP1 DUP3 ADD MSTORE PUSH32 0x496E76616C69642076616C756500000000000000000000000000000000000000 PUSH1 0x84 DUP3 ADD MSTORE PUSH20 0x0 SWAP1 PUSH4 0xABCD7960 SWAP1 PUSH1 0xA4 ADD PUSH2 0x2D3 JUMP JUMPDEST PUSH0 PUSH1 0x20 DUP3 DUP5 SUB SLT ISZERO PUSH2 0x639 JUMPI PUSH0 DUP1 REVERT JUMPDEST DUP2 MLOAD DUP1 ISZERO ISZERO DUP2 EQ PUSH2 0x648 JUMPI PUSH0 DUP1 REVERT JUMPDEST SWAP4 SWAP3 POP POP POP JUMP JUMPDEST PUSH0 PUSH1 0x20 DUP3 DUP5 SUB SLT ISZERO PUSH2 0x65F JUMPI PUSH0 DUP1 REVERT JUMPDEST DUP2 MLOAD PUSH20 0xFFFFFFFFFFFFFFFFFFFFFFFFFFFFFFFFFFFFFFFF DUP2 AND DUP2 EQ PUSH2 0x648 JUMPI PUSH0 DUP1 REVERT INVALID LOG2 PUSH5 0x6970667358 0x22 SLT KECCAK256 0xA5 PUSH22 0xB43C4E321CA38795D660FD03678F4964F12A86E37B0E SWAP3 0xB4 0xE2 0xEB 0xE3 0xE9 0xC 0xFB PUSH5 0x736F6C6343 STOP ADDMOD XOR STOP CALLER "
				},
				"gasEstimates": {
					"creation": {
						"codeDepositCost": "344000",
						"executionCost": "378",
						"totalCost": "344378"
					},
					"external": {
						"beforeAll()": "infinite",
						"checkFailure()": "infinite",
						"checkSenderAndValue()": "infinite",
						"checkSuccess()": "infinite",
						"checkSuccess2()": "193"
					}
				},
				"methodIdentifiers": {
					"beforeAll()": "7fea0d4b",
					"checkFailure()": "36c00656",
					"checkSenderAndValue()": "9074416d",
					"checkSuccess()": "011e6492",
					"checkSuccess2()": "12d487ea"
				}
			},
			"storageLayout": {
				"storage": [],
				"types": null
			},
			"userdoc": {
				"kind": "user",
				"methods": {
					"beforeAll()": {
						"notice": "'beforeAll' runs before all other tests More special functions are: 'beforeEach', 'beforeAll', 'afterEach' & 'afterAll'"
					},
					"checkSenderAndValue()": {
						"notice": "Custom Transaction Context: https://remix-ide.readthedocs.io/en/latest/unittesting.html#customization #sender: account-1 #value: 100"
					}
				},
				"version": 1
			}
		}
	}
}