{
	"data": {
		"bytecode": {
			"linkReferences": {},
			"object": "6102be610035600b8282823980515f1a60731461002957634e487b7160e01b5f525f60045260245ffd5b305f52607381538281f3fe7300000000000000000000000000000000000000003014608060405260043610610034575f3560e01c8063ce88b14514610038575b5f80fd5b61004b610046366004610244565b610074565b60405173ffffffffffffffffffffffffffffffffffffffff909116815260200160405180910390f35b5f61007d610225565b735b38da6a701c568545dcfcb03fcb875f56beddc4815273ab8483f64d9c6d1ecf9b849ae677dd3315835cb26020820152734b20993bc481177ec7e8f571cecae8a9e22c02db60408201527378731d3ca6b7e34ac0f824c42a7cc18a495cabab606082015273617f2e2fd72fd9d5503197092ac168c91465e7f260808201527317f6ad8ef982297579c203069c1dbffe4348c37260a0820152735c6b0f7bf3e7ce046039bd8fabdfd3f9f502167860c08201527303c6fced478cbbc9a4fab34ef9f40767739d1ff760e0820152731ae0ea34a72d944a8c7603ffb3ec30a6669e454c610100820152730a098eda01ce92ff4a4ccb7a4fffb5a43ebc70dc61012082015273ca35b7d915458ef540ade6068dfe2f44e8fa733c6101408201527314723a09acff6d2a60dcdf7aa4aff308fddc160c610160820152734b0897b0513fdc7c541b6d9d7e929c4e5364d2db61018082015273583031d1113ad414f02576bd6afabfb3021402256101a082015273dd870fa1b7c4700f2bd7f44238821c26f73921486101c08201528083600f81106102195761021961025b565b60200201519392505050565b604051806101e00160405280600f906020820280368337509192915050565b5f60208284031215610254575f80fd5b5035919050565b7f4e487b71000000000000000000000000000000000000000000000000000000005f52603260045260245ffdfea264697066735822122096eef3ced536226f7eac5e497042982941affa43ff013d81bdefc41ea834411e64736f6c63430008180033",
			"opcodes": "PUSH2 0x2BE PUSH2 0x35 PUSH1 0xB DUP3 DUP3 DUP3 CODECOPY DUP1 MLOAD PUSH0 BYTE PUSH1 0x73 EQ PUSH2 0x29 JUMPI PUSH4 0x4E487B71 PUSH1 0xE0 SHL PUSH0 MSTORE PUSH0 PUSH1 0x4 MSTORE PUSH1 0x24 PUSH0 REVERT JUMPDEST ADDRESS PUSH0 MSTORE PUSH1 0x73 DUP2 MSTORE8 DUP3 DUP2 RETURN INVALID PUSH20 0x0 ADDRESS EQ PUSH1 0x80 PUSH1 0x40 MSTORE PUSH1 0x4 CALLDATASIZE LT PUSH2 0x34 JUMPI PUSH0 CALLDATALOAD PUSH1 0xE0 SHR DUP1 PUSH4 0xCE88B145 EQ PUSH2 0x38 JUMPI JUMPDEST PUSH0 DUP1 REVERT JUMPDEST PUSH2 0x4B PUSH2 0x46 CALLDATASIZE PUSH1 0x4 PUSH2 0x244 JUMP JUMPDEST PUSH2 0x74 JUMP JUMPDEST PUSH1 0x40 MLOAD PUSH20 0xFFFFFFFFFFFFFFFFFFFFFFFFFFFFFFFFFFFFFFFF SWAP1 SWAP2 AND DUP2 MSTORE PUSH1 0x20 ADD PUSH1 0x40 MLOAD DUP1 SWAP2 SUB SWAP1 RETURN JUMPDEST PUSH0 PUSH2 0x7D PUSH2 0x225 JUMP JUMPDEST PUSH20 0x5B38DA6A701C568545DCFCB03FCB875F56BEDDC4 DUP2 MSTORE PUSH20 0xAB8483F64D9C6D1ECF9B849AE677DD3315835CB2 PUSH1 0x20 DUP3 ADD MSTORE PUSH20 0x4B20993BC481177EC7E8F571CECAE8A9E22C02DB PUSH1 0x40 DUP3 ADD MSTORE PUSH20 0x78731D3CA6B7E34AC0F824C42A7CC18A495CABAB PUSH1 0x60 DUP3 ADD MSTORE PUSH20 0x617F2E2FD72FD9D5503197092AC168C91465E7F2 PUSH1 0x80 DUP3 ADD MSTORE PUSH20 0x17F6AD8EF982297579C203069C1DBFFE4348C372 PUSH1 0xA0 DUP3 ADD MSTORE PUSH20 0x5C6B0F7BF3E7CE046039BD8FABDFD3F9F5021678 PUSH1 0xC0 DUP3 ADD MSTORE PUSH20 0x3C6FCED478CBBC9A4FAB34EF9F40767739D1FF7 PUSH1 0xE0 DUP3 ADD MSTORE PUSH20 0x1AE0EA34A72D944A8C7603FFB3EC30A6669E454C PUSH2 0x100 DUP3 ADD MSTORE PUSH20 0xA098EDA01CE92FF4A4CCB7A4FFFB5A43EBC70DC PUSH2 0x120 DUP3 ADD MSTORE PUSH20 0xCA35B7D915458EF540ADE6068DFE2F44E8FA733C PUSH2 0x140 DUP3 ADD MSTORE PUSH20 0x14723A09ACFF6D2A60DCDF7AA4AFF308FDDC160C PUSH2 0x160 DUP3 ADD MSTORE PUSH20 0x4B0897B0513FDC7C541B6D9D7E929C4E5364D2DB PUSH2 0x180 DUP3 ADD MSTORE PUSH20 0x583031D1113AD414F02576BD6AFABFB302140225 PUSH2 0x1A0 DUP3 ADD MSTORE PUSH20 0xDD870FA1B7C4700F2BD7F44238821C26F7392148 PUSH2 0x1C0 DUP3 ADD MSTORE DUP1 DUP4 PUSH1 0xF DUP2 LT PUSH2 0x219 JUMPI PUSH2 0x219 PUSH2 0x25B JUMP JUMPDEST PUSH1 0x20 MUL ADD MLOAD SWAP4 SWAP3 POP POP POP JUMP JUMPDEST PUSH1 0x40 MLOAD DUP1 PUSH2 0x1E0 ADD PUSH1 0x40 MSTORE DUP1 PUSH1 0xF SWAP1 PUSH1 0x20 DUP3 MUL DUP1 CALLDATASIZE DUP4 CALLDATACOPY POP SWAP2 SWAP3 SWAP2 POP POP JUMP JUMPDEST PUSH0 PUSH1 0x20 DUP3 DUP5 SUB SLT ISZERO PUSH2 0x254 JUMPI PUSH0 DUP1 REVERT JUMPDEST POP CALLDATALOAD SWAP2 SWAP1 POP JUMP JUMPDEST PUSH32 0x4E487B7100000000000000000000000000000000000000000000000000000000 PUSH0 MSTORE PUSH1 0x32 PUSH1 0x4 MSTORE PUSH1 0x24 PUSH0 REVERT INVALID LOG2 PUSH5 0x6970667358 0x22 SLT KECCAK256 SWAP7 0xEE RETURN 0xCE 0xD5 CALLDATASIZE 0x22 PUSH16 0x7EAC5E497042982941AFFA43FF013D81 0xBD 0xEF 0xC4 0x1E 0xA8 CALLVALUE COINBASE 0x1E PUSH5 0x736F6C6343 STOP ADDMOD XOR STOP CALLER "
		},
		"gasEstimates": {
			"creation": {
				"codeDepositCost": "140400",
				"executionCost": "214",
				"totalCost": "140614"
			},
			"external": {
				"getAccount(uint256)": "infinite"
			}
		},
		"methodIdentifiers": {
			"getAccount(uint256)": "ce88b145"
		}
	},
	"abi": [
		{
			"inputs": [
				{
					"internalType": "uint256",
					"name": "index",
					"type": "uint256"
				}
			],
			"name": "getAccount",
			"outputs": [
				{
					"internalType": "address",
					"name": "",
					"type": "address"
				}
			],
			"stateMutability": "pure",
			"type": "function"
		}
	]
}